:100000000C9463000C948B000C948B000C948B006C
:100010000C948B000C948B000C948B000C948B0034
:100020000C948B000C948B000C948B000C948B0024
:100030000C948B000C948B000C948B000C948B0014
:100040000C94DE060C948B000C94B9020C94930271
:100050000C948B000C948B000C948B000C948B00F4
:100060000C94EB020C948B001F1C1F1E1F1E1F1FE5
:100070001E1F1E1F000000080002010000030407ED
:100080000000000000000000000000002500280023
:100090002B0000000000240027002A0004040404B0
:1000A0000404040402020202020203030303030322
:1000B00001020408102040800102040810200102FF
:1000C00004081020D30911241FBECFEFD8E0DEBFF3
:1000D000CDBF11E0A0E0B1E0E0EFF4E102C0059097
:1000E0000D92AC36B107D9F722E0ACE6B1E001C021
:1000F0001D92AA3EB207E1F710E0C3E6D0E004C0CB
:100100002197FE010E946B0AC236D107C9F70E94EF
:1001100028070C94760A0C94000008950895CF9255
:10012000DF92EF92FF920F931F93CF93DF936C01B7
:100130007A018B01C0E0D0E0CE15DF0581F0D80157
:100140006D918D01D601ED91FC910190F081E02D32
:10015000C6010995892B11F02196EECF7E01C701CA
:10016000DF91CF911F910F91FF90EF90DF90CF9093
:100170000895FC01538D448D252F30E0842F90E0AD
:10018000821B930B541710F0CF9608950197089592
:10019000FC01918D828D981761F0828DDF01A80F8F
:1001A000B11D5D968C91928D9F5F9F73928F90E0B1
:1001B00008958FEF9FEF0895FC01918D828D981720
:1001C00031F0828DE80FF11D858D90E008958FEF5D
:1001D0009FEF0895FC01918D228D892F90E0805C26
:1001E0009F4F821B91098F739927089580E292E0B7
:1001F0000E94EA0021E0892B09F420E0822F089573
:10020000FC01848DDF01A80FB11DA35ABF4F2C91B3
:10021000848D90E001968F739927848FA689B78982
:100220002C93A089B1898C91837080648C93938D79
:10023000848D981306C00288F389E02D80818F7D1C
:1002400080830895EF92FF920F931F93CF93DF93D4
:10025000EC0181E0888F9B8D8C8D981305C0E88917
:10026000F989808185FD26C0F62E0B8D10E00F5F89
:100270001F4F0F731127E02E8C8DE8120CC00FB6A4
:1002800007FCFACFE889F989808185FFF5CFCE0197
:100290000E940001F1CF8B8DFE01E80FF11DE35AA2
:1002A000FF4FF0829FB7F8940B8FEA89FB8980811A
:1002B00080620AC09FB7F894EE89FF896083E8895D
:1002C000F98980818370806480839FBF81E090E0A2
:1002D000DF91CF911F910F91FF90EF900895CF93F1
:1002E000DF93EC01888D8823C9F0EA89FB8980813E
:1002F00085FD05C0A889B9898C9186FD0FC00FB610
:1003000007FCF5CF808185FFF2CFA889B9898C9150
:1003100085FFEDCFCE010E940001E7CFDF91CF91A5
:10032000089580E090E0892B29F00E94F600811169
:100330000C9400000895FC01908190539A3008F0CD
:1003400090E0818180532AE0929F800D11240895CE
:1003500085ED8093BC008091BC0084FDFCCF1092A1
:10036000FB01089540918C01262F30E0240F311DB0
:1003700021323105DCF42091FB012430C9F4FC0169
:1003800080E090E0861758F430918C012191DC01D7
:10039000A459BE4FA30FB11D2C930196F3CF8091AA
:1003A0008C01680F60938C0180E0089581E00895CE
:1003B00082E008950895E091B4018091B301E817B7
:1003C00030F4F0E0EB54FE4F808190E008958FEF21
:1003D0009FEF08959091B4018091B301981750F464
:1003E000E92FF0E0EB54FE4F208130E09F5F9093C7
:1003F000B40102C02FEF3FEFC90108958091B3010E
:1004000090E02091B401821B91090895CF92DF9270
:10041000EF92FF920F931F93CF93DF937C01CB0159
:100420008A012091FC01222389F0EB016B01C40EAB
:10043000D51ECC15DD0569F06991D701ED91FC91D0
:100440000190F081E02DC7010995F3CF642F0E9440
:10045000B201C801DF91CF911F910F91FF90EF90F2
:10046000DF90CF900895CF93DF931F92CDB7DEB783
:1004700069832091FC012223D1F020911F022032B8
:1004800040F021E030E0FC013383228380E090E003
:1004900015C08091FD01E82FF0E0E250FE4F9981F8
:1004A00090838F5F8093FD0180931F0205C061E000
:1004B000CE0101960E94B20181E090E00F90DF91A1
:1004C000CF910895089580E090E00895CF93DF9351
:1004D000EC0160E08E810E94CA0561E08E810E947D
:1004E000CA0560E08E810E94CA058BE891E0019701
:1004F000F1F7DF91CF9108950E94710A611571059E
:1005000079F0FB0101900020E9F73197AF01461B1C
:10051000570BDC01ED91FC910280F381E02D0994F1
:1005200080E090E008951F920F920FB60F92112471
:100530002F933F934F935F936F937F938F939F93EB
:10054000AF93BF93EF93FF9380E292E00E9400018C
:10055000FF91EF91BF91AF919F918F917F916F919B
:100560005F914F913F912F910F900FBE0F901F9071
:1005700018951F920F920FB60F9211242F938F93FD
:100580009F93EF93FF93E0913002F09131028081CD
:10059000E0913602F091370282FD12C09081809185
:1005A00039028F5F8F7320913A02821751F0E091E8
:1005B0003902F0E0E05EFD4F958F8093390201C073
:1005C0008081FF91EF919F918F912F910F900FBE9E
:1005D0000F901F9018951F920F920FB60F92112433
:1005E0002F933F934F935F936F937F938F939F933B
:1005F000AF93BF93EF93FF938091B900887F8036CC
:1006000009F49CC068F5883209F45BC090F480312D
:1006100009F454C038F4882309F4F6C0883009F48A
:100620004DC0F6C0883109F44CC0803209F45DC079
:10063000EFC0803409F468C048F4803309F455C031
:10064000883309F0E5C08093F901D8C0803509F4FA
:100650004FC0883509F45DC0883409F0D9C0D6C0D0
:10066000883909F4C7C0A8F4883709F467C038F49A
:10067000883609F463C0803709F460C0C9C088387F
:1006800009F4B8C0803909F45FC0803809F0C0C0EF
:100690005BC0803B09F486C038F4803A09F466C038
:1006A000883A09F47FC0B4C0803C09F4A7C0883CF4
:1006B00009F4A4C0883B09F48AC0AAC08091D6017D
:1006C00010C09091F8018091F701981770F5E091B2
:1006D000F80181E08E0F8093F801F0E0E952FE4FBF
:1006E00080818093BB0085EC86C08093F9018EC029
:1006F000E091F80181E08E0F8093F8018091BB00BA
:10070000F0E0E952FE4F80839091F8018091F7016B
:100710006EC0E091F80181E08E0F8093F801809126
:10072000BB00F0E0E952FE4F80838091FA01811115
:100730006DC081E08093D50184EA61C083E080933D
:10074000FB011092AE01CFCF8091AE01803208F054
:1007500051C0E091AE0181E08E0F8093AE01809197
:10076000BB00F0E0E257FE4F8083BDCF85EC809365
:10077000BC001092FB018091AE01803230F4E09118
:10078000AE01F0E0E257FE4F10826091AE0170E0E2
:10079000E091AF01F091B0018EE891E009951092DF
:1007A000AE0136C084E08093FB0110928D0110925F
:1007B0008C01E091B101F091B201099580918C0119
:1007C000811105C081E080938C0110926C01E09151
:1007D0008D0181E08E0F80938D01F0E0E459FE4F92
:1007E00080818093BB0090918D0180918C0198173E
:1007F00008F479CF85E88093BC000AC085EC80932B
:10080000BC001092FB0104C01092F9010E94A801E3
:10081000FF91EF91BF91AF919F918F917F916F91D8
:100820005F914F913F912F910F900FBE0F901F90AE
:100830001895CF92DF92EF92FF920F931F93CF9371
:10084000DF936C017C0187E0E80EF11CC0E0D0E092
:10085000062F10E0B8010C2E02C0759567950A941A
:10086000E2F76170F70181917F010E94CA0521962C
:10087000C430D10579F7C601DF91CF911F910F9157
:10088000FF90EF90DF90CF900C946602CF92DF92B2
:10089000EF92FF920F931F93CF93DF93EC01F62E0D
:1008A000642F8C810E94CA058D818F3F19F060E012
:1008B0000E94CA058F850F2D10E084FF25C06E01B0
:1008C00087E0C80ED11CE12CF12CB8010E2C02C01F
:1008D000759567950A94E2F76170F60181916F0151
:1008E0000E94CA05FFEFEF1AFF0A88E0E816F1043C
:1008F00061F7CE01DF91CF911F910F91FF90EF90A3
:10090000DF90CF900C946602B80184E075956795EE
:100910008A95E1F7CE010E9419046F2DCE01DF9177
:10092000CF911F910F91FF90EF90DF90CF900C949B
:10093000190441E00E94460481E090E0089540E0FF
:10094000682F89EC92E00C94460490E0FC01E0559D
:10095000FF4F2491FC01E456FF4F8491882399F0C6
:1009600090E0880F991FFC01EE56FF4FA591B491BE
:10097000FC01E857FF4F859194918FB7F894EC9163
:10098000E22BEC938FBF0895282F30911F02313254
:1009900008F04AC08091FB018111FCCF90911E02AA
:1009A00042E04093FB012093FA012FEF2093F901DD
:1009B0001092F8013093F701EEEFF1E0A7EDB1E00E
:1009C00020E0321721F041914D932F5FFACF109222
:1009D000D6012091D601990F922B9093D601909138
:1009E000D501913061F41092D5019091D601909388
:1009F000BB009091BC0093FDF8CF95EC01C095EE43
:100A00009093BC009091FB019230E1F39091F90139
:100A10009F3F79F08091F901803241F08091F90196
:100A2000803331F084E005C081E003C082E001C082
:100A300083E01092FD0110921F021092FC010895B4
:100A40009091FB019111FCCF982F813208F090E238
:100A500081E08093FB018093FA012FEF2093F9014D
:100A60001092F801290F2093F7018093D60180910D
:100A7000D601806D8093D6018091D501813061F4DB
:100A80001092D5018091D6018093BB008091BC006B
:100A900083FDF8CF85EC01C085EE8093BC0080918A
:100AA000FB018130E1F38091F801891710F49091F6
:100AB000F801E7EDF1E0A5EBB1E080E0891721F066
:100AC00021912D938F5FFACF1092B4018093B301DF
:100AD00008958F929F92AF92BF920F931F93CF93DF
:100AE000DF93CDB7DEB7A1970FB6F894DEBF0FBE88
:100AF000CDBF19A2423008F44AE08E010F5D1F4FAE
:100B0000842E912CA12CB12CA50194010E94490A9C
:100B1000E62FB901CA0101501109EA3014F4E05D71
:100B200001C0E95CD801EC93232B242B252B61F722
:100B3000B80189EC92E00E947E02A1960FB6F8946B
:100B4000DEBF0FBECDBFDF91CF911F910F91BF9040
:100B5000AF909F908F900895682F70E080E090E0B4
:100B60004AE00C946905BC0189EC92E00C947E0289
:100B7000643008F063E09091DC02691710F06FEFC9
:100B8000690FE62FF0E0E753FD4F9489890F8068E5
:100B90000C949F0490E0FC01EC58FF4F2491FC0161
:100BA000E055FF4F3491FC01E456FF4FE491EE23F2
:100BB00009F43CC0222339F1233091F038F421307C
:100BC000A9F0223001F584B58F7D12C0273091F055
:100BD0002830A1F02430B9F4809180008F7D03C0CB
:100BE000809180008F77809380000DC084B58F77CF
:100BF00084BD09C08091B0008F7703C08091B000A0
:100C00008F7D8093B000F0E0EE0FFF1FE857FF4F9D
:100C1000A591B4919FB7F894611104C08C9130955F
:100C2000382302C0EC913E2B3C939FBF0895CF9395
:100C3000DF93823028F09091D80298609093D80288
:100C40008093DC021092DD0280E48093DE0280E17A
:100C50008093DF0280E58093E0028091CD020E94C4
:100C6000A5048091CE028F3F11F00E94A5048091CF
:100C7000CF020E94A504C9ECD2E09E01295C32405B
:100C80008091D80284FD03C084E090E002C088E037
:100C900090E021962817390724F48E810E94A5043C
:100CA000ECCF8BE39DE00197F1F760E08091CD02FE
:100CB0000E94CA0560E08091CF020E94CA0580911F
:100CC000CE028F3F19F060E00E94CA058091D802E1
:100CD00084FD20C063E089EC92E00E941904CBE41B
:100CE000D6E4CE010197F1F763E089EC92E00E942F
:100CF00019042197F1F763E089EC92E00E9419044E
:100D000083E592E00197F1F762E089EC92E00E94BE
:100D1000190415C080620E949F048BE496E4019739
:100D2000F1F78091D80280620E949F0483E592E0EF
:100D30000197F1F78091D80280620E949F04809110
:100D4000D80280620E949F0484E08093D9028CE0E4
:100D50000E949F0481E00E949F048BE39FE1019722
:100D6000F1F782E08093DA0286E0DF91CF910C9474
:100D70009F043FB7F8948091E6029091E702A0911A
:100D8000E802B091E90226B5A89B05C02F3F19F0F3
:100D90000196A11DB11D3FBFBA2FA92F982F8827FB
:100DA000820F911DA11DB11DBC01CD0142E0660F56
:100DB000771F881F991F4A95D1F708951F920F92A8
:100DC0000FB60F9211242F933F938F939F93AF935E
:100DD000BF938091E2029091E302A091E402B0916E
:100DE000E5023091E10223E0230F2D3720F4019634
:100DF000A11DB11D05C026E8230F0296A11DB11D3E
:100E00002093E1028093E2029093E302A093E40234
:100E1000B093E5028091E6029091E702A091E8028A
:100E2000B091E9020196A11DB11D8093E602909355
:100E3000E702A093E802B093E902BF91AF919F91BE
:100E40008F913F912F910F900FBE0F901F9018958B
:100E5000789484B5826084BD84B5816084BD85B595
:100E6000826085BD85B5816085BD80916E008160A1
:100E700080936E0010928100809181008260809347
:100E80008100809181008160809381008091800049
:100E90008160809380008091B10084608093B10074
:100EA0008091B00081608093B00080917A0084606E
:100EB00080937A0080917A00826080937A0080919A
:100EC0007A00816080937A0080917A0080688093B4
:100ED0007A001092C1008DE00E94A504E0913002DA
:100EE000F091310282E08083E0913002F091310292
:100EF0001082E0912C02F0912D021082E0912E02DE
:100F0000F0912F0280E1808310923802E091340248
:100F1000F091350286E08083E0913202F091330255
:100F2000808180618083E0913202F0913302808180
:100F300088608083E0913202F09133028081806882
:100F40008083E0913202F091330280818F7D808333
:100F50001092B4011092B3011092FD0110921F0281
:100F60001092FB0111E01093FA011092D50161E09B
:100F700082E10E94CA0561E083E10E94CA05809176
:100F8000B9008E7F8093B9008091B9008D7F8093E6
:100F9000B90088E48093B80085E48093BC008DE8B4
:100FA00090E09093B2018093B1018EE890E090932D
:100FB000B0018093AF0182E00E9417061093FC01FC
:100FC000B8E6DB2ED0921E021092FD0110921F0295
:100FD00060E08DEB92E00E94330281E00E94C40445
:100FE00081E090E00E9420058DEB92E00E94EA01F2
:100FF00087FFACC060E371E080E292E00E947E0275
:1010000064E471E080E292E00E947E0280E591E07B
:101010000E949B01C82F8BE491E00E949B01082F46
:1010200083E591E00E949B01D82F86E591E00E9424
:101030009B01F82E89E591E00E949B01E82E109318
:10104000FC01D0921E021092FD0110921F0260E07E
:101050008DEB92E00E9433021AE08E2D612F0E94E8
:10106000290A682F660F860F880F682F6E0D8DEB8B
:1010700092E00E9433028F2D612F0E94290A682F6F
:10108000660F860F880F682F6F0D8DEB92E00E9420
:1010900033028D2F612F0E94290A682F660F860F59
:1010A000880F682F6D0F8DEB92E00E943302D0E025
:1010B000802F90E0E8E6F0E0E4918E0F911D059618
:1010C0004DE651E0C49F9001C59F300DD49F300D77
:1010D0001124820F931F9E012D5F3F4F3695279558
:1010E00036952795820F931F67E070E00E94350ABE
:1010F000682F8DEB92E00E943302802F612F0E94B7
:10110000290A682F660F860F880F682F600F8DEBF6
:1011100092E00E94330262E08DEB92E00E94330283
:101120008C2F612F0E94290A682F660F860F880F67
:10113000682F6C0F8DEB92E00E94330260E08DEB24
:1011400092E00E94330281E00E94C404332433946D
:10115000E8E62E2E0AEFFBE3CF2EFFE1DF2E3092E2
:10116000FC0120921E021092FD0110921F0260E00D
:101170008DEB92E00E94330281E00E94C40487E07C
:1011800090E00E9420058DEB92E00E94EA018F77AB
:10119000982F92959F70D82F909FD00D11248DEB92
:1011A00092E00E94EA019C01332794E0359527954F
:1011B0009A95E1F7182F029F100D11248DEB92E004
:1011C0000E94EA019C01332744E0359527954A9512
:1011D000E1F7C82F029FC00D11248DEB92E00E9411
:1011E000EA018DEB92E00E94EA019C01332754E072
:1011F000359527955A95E1F7A82E029FA00C11244A
:101200008DEB92E00E94EA019C01332764E0359562
:1012100027956A95E1F7B82E029FB00C11248DEB4B
:1012200092E00E94EA019C01332774E035952795EE
:101230007A95E1F7029F800D1124E82EF12C81E0D0
:101240000E949F04C6010197F1F760E080E00E94D0
:10125000B8058CE591E00E94B30560E086E00E944D
:10126000B8058A2D0E94AC0541E06FE289EC92E05E
:101270000E94460429E02B1520F082E691E00E94AE
:10128000B3058B2D0E94AC0584E691E00E94B30566
:10129000B7016053784F072E000C880B990B4AE07A
:1012A0000E94690561E080E00E94B80586E691E051
:1012B0000E94B30561E087E00E94B805CA3020F4BF
:1012C00082E691E00E94B3058C2F0E94AC058AE66D
:1012D00091E00E94B3051A3020F482E691E00E946A
:1012E000B305812F0E94AC058AE691E00E94B30508
:1012F000DA3020F482E691E00E94B3058D2F0E943F
:10130000AC050E94B9062B013C0188EE882E83E0D3
:10131000982EA12CB12C0E94B906DC01CB018419B6
:101320009509A609B709883E9340A105B10598F330
:1013300081E0881A9108A108B10828EE420E23E046
:10134000521E611C711C81149104A104B10419F78F
:10135000C83029F41E3001F5D33248F01DC0CC301E
:1013600041F0CD3049F41633B9F4DC33A8F461E030
:1013700014C01B3089F404C0CE3029F411110CC004
:10138000D431A8F309C0C23119F4193329F4F8CFC4
:10139000C11102C01533A1F360E08DE00E94CA05BF
:1013A0000E949101DCCEE0E2F2E01382128288EE2C
:1013B00093E0A0E0B0E084839583A683B78324E024
:1013C00031E03183208325EC30E03587248724EC1D
:1013D00030E03787268720EC30E0318B208B21EC02
:1013E00030E0338B228B22EC30E0358B248B26ECE3
:1013F00030E0378B268B118E128E138E148EEDEB10
:10140000F2E01382128284839583A683B78386E1F8
:1014100091E091838083E9ECF2E01382128288E20A
:1014200091E09183808387E084838FEF858386E0DA
:10143000868385E0878384E0808783E0818782E0FC
:1014400082871386148615861686178681E00C948B
:101450001706991B79E004C0991F961708F0961B90
:10146000881F7A95C9F780950895AA1BBB1B51E187
:1014700007C0AA1FBB1FA617B70710F0A61BB70B04
:10148000881F991F5A95A9F780959095BC01CD01A9
:101490000895A1E21A2EAA1BBB1BFD010DC0AA1FB5
:1014A000BB1FEE1FFF1FA217B307E407F50720F0CD
:1014B000A21BB30BE40BF50B661F771F881F991F48
:1014C0001A9469F760957095809590959B01AC0191
:1014D000BD01CF010895EE0FFF1F0590F491E02D9F
:1014E000099481E090E0F8940C94760AF894FFCF88
:1014F0000000000022018F00B9006F01EA00C8005F
:10150000DC0000000000330206026302DA01FE0183
:10151000EA01DB010000000099048F00630262020F
:10152000525443206973204E4F542072756E6E6979
:101530006E6721000D0A004665622020332032309C
:1015400032330031383A34323A323800444154456B
:0C1550003A0030002F0054494D453A008D
:00000001FF
